S01100004F6E6C696E652D31332E737265631D
S11300000C942A000C94A2070C94CB070C94F507CB
S11300100C9447000C9447000C9499080C944708DE
S11300200C9470080C941E080C9447000C94470020
S11300300C9447000C9447000C9447000C94470020
S11300400C9447000C9447000C9447000C94470010
S11300500C94470011241FBECFE5D8E0DEBFCDBF0E
S113006011E0A0E6B0E0EAE0F2E102C005900D92F2
S1130070AA36B107D9F721E0AAE6B1E001C01D9282
S1130080A837B207E1F70E9483020C9403090C9489
S11300900000CF93CCE061E08C2F0E942806CF5F54
S11300A0C031C9F7CF910895DF92EF92FF920F9379
S11300B01F93CF93DF9390E6E92E90E0F92ECCE0E6
S11300C0D4E560E08C2F0E94280600E010E08AE16D
S11300D0D82ED00E8D2D0E94A706811115C0F701D0
S11300E0E00FF11FD0818FE19EE40197F1F700C08A
S11300F000008D2D0E94A7068823D9F38FE19EE48A
S11301000197F1F700C000000F5F1F4F0430110585
S1130110F1F661E08C2F0E942806CF5F94E0E90E8F
S1130120F11CC03171F68D2FDF91CF911F910F918A
S1130130FF90EF90DF900895CF93C82F60E088E19F
S11301400E9428066C2F661F6627661F87E10E949F
S11301502806C6FB662760F986E10E942806C5FBCF
S1130160662760F985E10E942806C4FB662760F9CA
S113017084E10E94280661E089E10E9428068FEC50
S113018097E00197F1F700C0000060E089E10E9468
S113019028068FEC97E00197F1F700C00000C3FB3D
S11301A0662760F987E10E942806C2FB662760F98A
S11301B086E10E942806C1FB662760F985E10E945A
S11301C028066C2F617084E10E94280661E089E1B1
S11301D00E9428068FEC97E00197F1F700C0000019
S11301E060E089E10E9428068FEC97E00197F1F71F
S11301F000C00000CF910895CF93C82F61E088E13B
S11302000E9428066C2F661F6627661F87E10E94DE
S11302102806C6FB662760F986E10E942806C5FB0E
S1130220662760F985E10E942806C4FB662760F909
S113023084E10E94280661E089E10E9428068FEC8F
S113024097E00197F1F700C0000060E089E10E94A7
S113025028068FEC97E00197F1F700C00000C3FB7C
S1130260662760F987E10E942806C2FB662760F9C9
S113027086E10E942806C1FB662760F985E10E9499
S113028028066C2F617084E10E94280661E089E1F0
S11302900E9428068FEC97E00197F1F700C0000058
S11302A060E089E10E9428068FEC97E00197F1F75E
S11302B000C00000CF9108952FE788E391E021501A
S11302C080409040E1F700C0000082E00E949C0062
S11302D088E20E949C008CE00E949C0081E00E94C5
S11302E09C008FEC97E00197F1F700C0000086E0D6
S11302F00C949C00811102C080E803C0813021F479
S113030080EC860F0C949C0008950C94FC000F93D1
S11303101F93CF938C01C0E0F801EC0FF11D808195
S1130320882321F00E94FC00CF5FF6CFCF911F916C
S11303300F9108954F925F926F927F92AF92BF9206
S1130340CF92DF92EF92FF921F93CF93DF93CDB7BB
S1130350DEB764970FB6F894DEBF0FBECDBF6B0156
S11303607C01611571058105910529F480E30E94E2
S1130370FC0010E02BC097FF0BC08DE20E94FC0034
S1130380F094E094D094C094C11CD11CE11CF11CE5
S113039010E09AE0492E512C612C712CAA24A394CC
S11303A0B12CAC0EBD1EA10EB11CC701B601A30138
S11303B092010E94E408605DF50160831F5F69019A
S11303C07A01C114D104E104F10441F7115017FD7D
S11303D00CC0E1E0F0E0EC0FFD1FE10FF11D17FD93
S11303E0FA9580810E94FC00F1CF64960FB6F894D0
S11303F0DEBF0FBECDBFDF91CF911F91FF90EF9075
S1130400DF90CF90BF90AF907F906F905F904F90B0
S113041008950F931F93CF93DF93C7E0D0E0082F85
S113042010E0C8010C2E02C0959587950A94E2F756
S11304308170805D0E94FC00219798F7DF91CF9135
S11304401F910F910895FC01389697E080E030E009
S11304502291203321F0213319F431E001C030E03E
S1130460492F21E0442319F0220F4150FBCF329F42
S1130470800D1124915060F70895CF93C82F829571
S11304808F70CF708A3010F4805D01C0895C0E9447
S1130490FC00CA3010F480E301C087E38C0FCF91D5
S11304A00C94FC00FC019C01285F3F4F80E091917B
S11304B040ED490F4A3030F440E1849F900D1124FF
S11304C080ED0BC0913421F04DEB490F443030F4F2
S11304D040E1849F900D112489EC890FE217F30702
S11304E031F70895CF93DF93D42F0E947A01C0E0AF
S11304F0CD1729F080E20E94FC00CF5FF9CFDF9195
S1130500CF9108950895CF93DF93CDB7DEB7609769
S11305100FB6F894DEBF0FBECDBF0E94C4060E9482
S113052082020E945C010E94490088E04E0129E099
S1130530820E911CF401282F11922A95E9F7FE01ED
S113054031965F0111928A95E9F74AE0F42EC12CA5
S113055012E0412C512C612C312C7724739401E04E
S113056051E4252E31103DC065E080E00E947A01FF
S113057080E990E00E94870160E081E00E947A01B6
S113058086E990E00E948701FFEF23ED30E3F1500C
S113059020403040E1F700C0000060E080E00E94AD
S11305A07A0189EA90E00E94870160E081E00E947C
S11305B07A0187EB90E00E9487010E945400843501
S11305C099F4612CF1E05F120CC00E945400D82E03
S11305D023E4821709F45BC034E5831371C0552406
S11305E0539461108BC1E9CF8334A1F44FE060E0F0
S11305F080E00E9472024FE060E081E00E9472029B
S113060060E080E00E947A01198A8AE0F82E412C89
S1130610512CAACF813391F460E080E00E947A01EA
S113062088EC90E00E94870160E081E00E947A01FA
S113063087EB90E00E94870101E060C1823391F46E
S113064060E080E00E947A0186ED90E00E948701DC
S113065060E081E00E947A0187EB90E00E948701CC
S113066000E04CC1833309F0ACCF60E080E00E942D
S11306707A0184EE90E00E94870160E081E00E94AC
S11306807A0187EB90E00E94870102E037C14FE0D6
S113069060E080E00E9472024FE060E081E00E942E
S11306A0720260E080E00E947A01198A0130A1F0B0
S11306B008F4A1C0023099F13AE0F32E12E0A7CF7A
S11306C0013091F008F49FC0023009F0B7C05524FE
S11306D05394332433942AC0AAE0FA2E12E0412C16
S11306E0512C312C612C04C055245394332433945D
S11306F080ED8D0D8A3008F0A5C0612F80E00E9446
S11307007A011F5F8D2D0E9485016E2D660F862F45
S1130710880F880F680F6053ED2CE60E23CFFAE0A4
S1130720FF2E12E0412C512C312C612C80ED8D0DCB
S11307308A3070F4F501EC0DF11DD082C394612F61
S113074080E00E947A011F5F8D2D0E9485014EC0BA
S11307508FE2D81210C0F501EC0DF11D2082C39474
S1130760612F80E00E947A011F5F81E40E9485016D
S1130770E1E4DE2E3BC09AE2D91211C0F501EC0D82
S1130780F11D22E42083C394612F80E00E947A014A
S11307901F5F82E40E94850172E4D72E27C03DE2E8
S11307A0D31211C0F501EC0DF11D85E48083C394CF
S11307B0612F80E00E947A011F5F85E40E94850119
S11307C065E4D62E13C09BE2D91210C0F501EC0DDE
S11307D0F11D26E42083C394612F80E00E947A01F6
S11307E01F5F86E40E94850156E4D52EC5010E9450
S11307F05202E82E27C04AE0F42E12E0412C512C7C
S1130800312C612C04C0552453943324339480ED4B
S11308108D0D8230B8F4F401E40DF11DD0824394BF
S11308206F2D80E00E947A01FA9432E0F31202C044
S11308303AE0F32E8D2D0E94850194CE55245394D5
S1130840332433948DE3D8128DCE91E0791649F098
S11308507916E0F1E2E07E1611F12AE0F22E11E0C1
S113086081CE61E081E00E947A01013041F068F0BC
S1130870023039F09AE0F92E11E0E12C73CE6E2D9E
S113088008C0C5010E94520203C0C4010E94230291
S1130890682F70E080E090E00E949A012BC061E034
S11308A081E00E947A01013019F030F0023011F732
S11308B08E2D0E943D021EC0C4010E9423020E948C
S11308C03D022AE0F22E12E0412CD7CF61E081E014
S11308D00E947A01013039F050F0023059F6C50116
S11308E00E94520201C08E2D0E94090203C0C4015D
S11308F00E9487019AE0F92E12E0BFCF511099C1EE
S11309000E945400843509F49FC18334A1F44FE05C
S113091060E080E00E9472024FE060E081E00E94AB
S1130920720260E080E00E947A01198ABAE0FB2E2C
S1130930412C612C8BC1813309F07CC0013039F129
S113094008F447C0023009F077C14DE060E080E070
S11309500E94720260E080E00E947A0182E191E0EC
S11309600E9487018FEF94E3ECE081509040E040D7
S1130970E1F700C000004DE060E080E00E947202F8
S113098060E080E00E947A018EE191E043C04DE096
S113099060E080E00E94720260E080E00E947A01E0
S11309A082EF90E00E9487018FEF94E3ECE08150A6
S11309B09040E040E1F700C000004DE060E080E0DE
S11309C00E94720260E080E00E947A018EEF90E063
S11309D021C04DE060E080E00E94720260E080E0AF
S11309E00E947A0182E091E00E948701FFEF24E3F4
S11309F03CE0F15020403040E1F700C000004DE001
S1130A0060E080E00E94720260E080E00E947A016F
S1130A108EE091E00E94870140E160E081E00E9465
S1130A20720260E081E00E947A018EEF90E00E9401
S1130A30870102C1823309F07DC0013029F030F111
S1130A40023009F455C052C04DE060E080E00E94DD
S1130A50720260E080E00E947A0182E291E00E94EA
S1130A608701FFEF24E33CE0F15020403040E1F700
S1130A7000C000004DE060E080E00E94720260E08F
S1130A8080E00E947A018EEF90E021C04DE060E0AA
S1130A9080E00E94720260E080E00E947A018EE2AF
S1130AA091E00E9487018FEF94E3ECE08150904045
S1130AB0E040E1F700C000004DE060E080E00E940B
S1130AC0720260E080E00E947A018EE091E00E9470
S1130AD0870140E160E081E00E94720260E081E011
S1130AE00E947A018EE091E00E948701712CA9C0D6
S1130AF04DE060E080E00E94720260E080E00E94CD
S1130B007A018AE391E00E948701FFEF24E33CE04D
S1130B10F15020403040E1F700C000004DE060E0BB
S1130B2080E00E94720260E080E00E947A018EE11F
S1130B3091E0CDCF833309F087C0013039F108F457
S1130B4047C0023009F07BC04DE060E080E00E94C5
S1130B50720260E080E00E947A018EE591E00E94DA
S1130B6087018FEF94E3ECE081509040E040E1F79F
S1130B7000C000004DE060E080E00E94720260E08E
S1130B8080E00E947A018EE191E043C04DE060E094
S1130B9080E00E94720260E080E00E947A0186E4B4
S1130BA091E00E9487018FEF94E3ECE08150904044
S1130BB0E040E1F700C000004DE060E080E00E940A
S1130BC0720260E080E00E947A018EEF90E021C022
S1130BD04DE060E080E00E94720260E080E00E94EC
S1130BE07A0182E591E00E948701FFEF24E33CE073
S1130BF0F15020403040E1F700C000004DE060E0DB
S1130C0080E00E94720260E080E00E947A018EE03F
S1130C1091E00E94870140E160E081E00E9472025D
S1130C2060E081E00E947A018EE191E00E948701F8
S1130C3006C066246394C6CC7724739402C082E011
S1130C40782E66246394C1CC66246394362C8ACCB3
S1130C50982F96959695969587706130C1F5913049
S1130C6091F028F09230D9F0933029F108954BB3E4
S1130C7021E030E0B90102C0660F771F8A95E2F7E0
S1130C80CB01842B38C048B321E030E0B90102C065
S1130C90660F771F8A95E2F7CB01842B3AC045B3E0
S1130CA021E030E0B90102C0660F771F8A95E2F7B0
S1130CB0CB01842B3CC042B321E030E0B90102C037
S1130CC0660F771F8A95E2F7CB01842B3EC09130E3
S1130CD0A1F028F09230F9F0933059F108954BB314
S1130CE021E030E0B90102C0660F771F8A95E2F770
S1130CF0CB01809584238BBB089548B321E030E079
S1130D00B90102C0660F771F8A95E2F7CB0180957F
S1130D10842388BB089545B321E030E0B90102C0C3
S1130D20660F771F8A95E2F7CB018095842385BBF4
S1130D30089542B321E030E0B90102C0660F771F85
S1130D408A95E2F7CB018095842382BB0895282FEE
S1130D502770869586958695813049F030F08230EB
S1130D6041F0833079F480B305C089B303C086B3FE
S1130D7001C083B390E002C0959587952A95E2F768
S1130D808170089580E00895E0E7F0E040E081E0BC
S1130D9090E05191342F369536953695242F27704F
S1130DA0513009F443C020F0523009F482C0C5C068
S1130DB0323001F1333061F1313071F05AB3BC019A
S1130DC002C0660F771F2A95E2F79B01352F322B5D
S1130DD03ABB3BB320953DC057B3BC0102C0660F7C
S1130DE0771F2A95E2F79B01352F322B37BB38B397
S1130DF020953EC054B3BC0102C0660F771F2A95EC
S1130E00E2F79B01352F322B34BB35B320953FC01D
S1130E1051B3BC0102C0660F771F2A95E2F79B010C
S1130E20352F322B31BB32B3209541C0323011F112
S1130E30333081F1313079F05AB3BC0102C0660F0E
S1130E40771F2A95E2F79B012095352F32233ABB71
S1130E503BB3232342C057B3BC0102C0660F771FC4
S1130E602A95E2F79B012095352F322337BB38B3FF
S1130E70232343C054B3BC0102C0660F771F2A95D5
S1130E80E2F79B012095352F322334BB35B323235E
S1130E9025BB53C051B3BC0102C0660F771F2A950E
S1130EA0E2F79B012095352F322331BB32B3232344
S1130EB043C0323021F1333089F1313081F05AB3FB
S1130EC0BC0102C0660F771F2A95E2F79B01362FFB
S1130ED0309535233ABB3BB3232B2BBB2EC057B3E2
S1130EE0BC0102C0660F771F2A95E2F79B01362FDB
S1130EF03095352337BB38B3232B28BB1EC054B3DE
S1130F00BC0102C0660F771F2A95E2F79B01362FBA
S1130F103095352334BB35B3232BBACF51B3BC0141
S1130F2002C0660F771F2A95E2F79B01362F309592
S1130F30352331BB32B3232B22BB4F5F403209F040
S1130F4028CF08951F920F920FB60F9211242F935A
S1130F503F934F935F936F937F938F939F93AF933D
S1130F60BF93EF93FF93E0916E01F0916F0130977F
S1130F7009F00995FF91EF91BF91AF919F918F91E6
S1130F807F916F915F914F913F912F910F900FBE81
S1130F900F901F90189578941F920F920FB60F928E
S1130FA011242F933F934F935F936F937F938F936A
S1130FB09F93AF93BF93EF93FF93E0916C01F091F4
S1130FC06D01309709F00995FF91EF91BF91AF91B1
S1130FD09F918F917F916F915F914F913F912F914D
S1130FE00F900FBE0F901F9018951F920F920FB67F
S1130FF00F9211242F933F934F935F936F937F939B
S11310008F939F93AF93BF93EF93FF93E0916A0104
S1131010F0916B01309709F00995FF91EF91BF9121
S1131020AF919F918F917F916F915F914F913F917C
S11310302F910F900FBE0F901F9018951F920F9233
S11310400FB60F9211242F933F934F935F936F9397
S11310507F938F939F93AF93BF93EF93FF93E0910D
S11310607601F0917701309709F00995FF91EF919E
S1131070BF91AF919F918F917F916F915F914F91AC
S11310803F912F910F900FBE0F901F9018951F92B4
S11310900F920FB60F9211242F933F934F935F93A8
S11310A06F937F938F939F93AF93BF93EF93FF932C
S11310B0E0917401F0917501309709F00995FF9161
S11310C0EF91BF91AF919F918F917F916F915F91BC
S11310D04F913F912F910F900FBE0F901F90189535
S11310E01F920F920FB60F9211242F933F934F9399
S11310F05F936F937F938F939F93AF93BF93EF937C
S1131100FF93E0917201F0917301309709F0099512
S1131110FF91EF91BF91AF919F918F917F916F91CB
S11311205F914F913F912F910F900FBE0F901F90A1
S113113018951F920F920FB60F9211242F933F937D
S11311404F935F936F937F938F939F93AF93BF93CB
S1131150EF93FF93E0917001F0917101309709F0E2
S11311600995FF91EF91BF91AF919F918F917F91DD
S11311706F915F914F913F912F910F900FBE0F9000
S11311801F901895A1E21A2EAA1BBB1BFD010DC0CE
S1131190AA1FBB1FEE1FFF1FA217B307E407F50723
S11311A020F0A21BB30BE40BF50B661F771F881FFF
S11311B0991F1A9469F760957095809590959B0195
S11311C0AC01BD01CF010895052E97FB1EF40094D8
S11311D00E94FB0857FD07D00E94C20807FC03D0F9
S11311E04EF40C94FB0850954095309521953F4F53
S11311F04F4F5F4F089590958095709561957F4FFF
S10D12008F4F9F4F0895F894FFCF1D
S113120A3738392F3435362A3132332D43303D2B92
S113121A01010101000000000000000000000000BC
S113122A00000000000000000000020202020000A8
S113123A48454C4C4F00436F6E7665727465722054
S113124A454C424552592E2E00436F6E7665727490
S113125A2066726F6D2000313A44202020323A42CF
S113126A20202020333A4800436F6E76657274203A
S113127A4420746F2000436F6E7665727420422096
S113128A746F2000436F6E76657274204820746F01
S113129A200044454320544F204445432000443A07
S11312AA200042494E20544F204445432000423AEC
S11312BA200048455820544F204445432000483ACA
S11312CA200044454320544F2042494E20004249BD
S11312DA4E20544F2042494E200048455820544F2E
S11312EA2042494E200044454320544F2048455843
S11312FA200042494E20544F204845582000484572
S10D130A5820544F20484558200095
S9030000FC
